{
  "contractName": "NFTCount",
  "abi": [
    {
      "inputs": [],
      "name": "count",
      "outputs": [
        {
          "internalType": "uint256",
          "name": "",
          "type": "uint256"
        }
      ],
      "stateMutability": "view",
      "type": "function"
    },
    {
      "inputs": [],
      "name": "addNFT",
      "outputs": [],
      "stateMutability": "nonpayable",
      "type": "function"
    },
    {
      "inputs": [],
      "name": "deleteNFT",
      "outputs": [],
      "stateMutability": "nonpayable",
      "type": "function"
    }
  ],
  "bytecode": "0x608060405234801561000f575f80fd5b506101ab8061001d5f395ff3fe608060405234801561000f575f80fd5b506004361061003f575f3560e01c806306661abd146100435780638acc7b4714610061578063e02b87bb1461006b575b5f80fd5b61004b610075565b60405161005891906100c9565b60405180910390f35b61006961007d565b005b610073610097565b005b5f8054905090565b60015f8082825461008e919061010f565b92505081905550565b60015f808282546100a89190610142565b92505081905550565b5f819050919050565b6100c3816100b1565b82525050565b5f6020820190506100dc5f8301846100ba565b92915050565b7f4e487b71000000000000000000000000000000000000000000000000000000005f52601160045260245ffd5b5f610119826100b1565b9150610124836100b1565b925082820190508082111561013c5761013b6100e2565b5b92915050565b5f61014c826100b1565b9150610157836100b1565b925082820390508181111561016f5761016e6100e2565b5b9291505056fea2646970667358221220cb121d5918990f7df261473835bb30baa26b9240e1c84c459e5912f75b77e94664736f6c63430008150033",
  "immutableReferences": {},
  "source": "// SPDX-License-Identifier: MIT\r\npragma solidity ^0.8.21;\r\n\r\ncontract NFTCount{\r\n    uint numberOfNFT;\r\n\r\n    function count() public view returns(uint){\r\n        return numberOfNFT;\r\n    }\r\n\r\n    function addNFT() public {\r\n        numberOfNFT+=1;\r\n    }\r\n\r\n    function deleteNFT() public {\r\n        numberOfNFT-=1;\r\n    }\r\n}",
  "sourcePath": "D:\\Jasmeet\\blockchain\\truffle-course\\contracts\\nftCounter.sol",
  "compiler": {
    "name": "solc",
    "version": "0.8.21+commit.d9974bed.Emscripten.clang"
  },
  "schemaVersion": "3.4.16",
  "updatedAt": "2023-10-11T11:12:23.960Z",
  "devdoc": {
    "kind": "dev",
    "methods": {},
    "version": 1
  },
  "userdoc": {
    "kind": "user",
    "methods": {},
    "version": 1
  }
}